S0120000536F66745F73746172742E73726563E9
S11300000FC029C028C027C026C089C124C023C06E
S113001022C021C020C01FC01EC01DC01CC01BC0E8
S113002011271FBFCFE5D0E0DEBFCDBF20E0A0E4A5
S1130030B0E0EEEBF3E402C031913D93A234B20799
S1130040D9F720E0A2E4B0E001C01D93AA34B207BE
S1130050E1F703D099C1D4CF0EC1FEDF78948DD1DE
S11300608FD18823E9F342A1411344C083E0F4D043
S1130070883042E0940708F48DC08A3842E094073F
S113008008F49DC0883F42E0940708F4D5C08C3A38
S1130090934008F4D3C044E045A950A1541791F00B
S11300A040A9339A149A179A329A159A423009F44D
S11300B0BFC008F086C0442309F47FC0413011F466
S11300C03398149884E0C8D0883C910720F442A166
S11300D0442309F461C043A154A14233510708F4F5
S11300E0BFCF12A914A913A980E090E012D10ED1B8
S11300F01398B6CF63A174A16F5F7F4F74A963A9EE
S113010045A150E0E42FF52FEE0FFF1FEE0FFF1F68
S1130110E40FF51FEE0FFF1FE457FC4B8191908114
S1130120E150F04068177907D8F1EE5FFF4F419135
S11301305081E350F040480F591F6417750708F4C5
S11301404BC0EC5FFF4F81919081E550F040480F28
S1130150591F6417750708F45DC0EA5FFF4F81916A
S11301609081480F591F6417750708F044C083E154
S113017090E0CFD040A1433009F4A4CF43E040A99C
S1130180339A149A179A329A159A3398149817989E
S1130190329898CF40E080CF41E042A9B3D09BCFC2
S11301A081E090E0B6D040A1442309F48BCF10A99C
S11301B0339A149A179A329A159A339883CF41E056
S11301C06BCF433011F3443009F07CCF339814984B
S11301D017983298159876CF85E090E09AD040A190
S11301E0413009F46FCF41E040A9339A149A179A29
S11301F0329A159A65CF80E490E08BD040A14430C8
S113020009F460CF44E040A9339A149A179A329AB9
S1130210159ADCCF89E090E07CD040A1423009F40B
S113022051CF42E040A9339A149A179A329A159AF8
S113023033981498179846CF42E02ECF43E02CCF42
S113024045B74D7F45BF43E04BBB41E84DBB1CBBAD
S113025048E147BB80E008954BB3487F4BBB4BB3A9
S1130260842B8BBBEE9AEC9BFECF89B34AB3EC9AFA
S113027090E0942B089547E045BF41B111B943B1D3
S11302804FEF43B945B1407F45B947B14F6047B9D6
S11302900B9A1B9813980C9A1C98149A1C980D9AF4
S11302A01D98159A1D980F9A1F98179A1F982A9AA5
S11302B03A98329A3A982B9A3B98339A3B9840E072
S11302C068ED86E390E005D01ABF1E983898B8DF31
S11302D005C0E82FF92F6CBF4083089545B74E7FC2
S11302E045BF42E04EBD4DE14DBD40E550E053BD3C
S11302F042BD17BD16BD41E04BBD4FB542604FBD79
S113030080E008954EB540684EBD08954EB54EBD8B
S1130310089597BD86BD089598A987A908951F9348
S11303200F930FB70F9310E04F935F936F937F93E7
S11303308F939F93AF93BF93EF93FF931ABD46A1FF
S11303404F5F46A9443638F0E7A1F8A1E117F10759
S113035009F0099516A9FF91EF91BF91AF919F9173
S11303608F917F916F915F914F910F910FBF0F917B
S11303701F91189541E049A908958AEB91E0CCCFEB
S10F038089A1811319A90895F894FFCFF6
S113038C0300030003000500030002000200020046
S113039C050002000200020002000200020001003B
S11303AC0100010001000100000000000000000039
S10503BC00003B
S10503BE050034
S9030000FC
